{
  "_format": "hh-sol-artifact-1",
  "contractName": "CallWinner",
  "sourceName": "contracts/CallWinner.sol",
  "abi": [
    {
      "inputs": [],
      "name": "win",
      "outputs": [],
      "stateMutability": "nonpayable",
      "type": "function"
    }
  ],
  "bytecode": "0x608060405273cf469d3beb3fc24cee979eff83be33ed509885026000806101000a81548173ffffffffffffffffffffffffffffffffffffffff021916908373ffffffffffffffffffffffffffffffffffffffff16021790555034801561006457600080fd5b5060eb806100736000396000f3fe6080604052348015600f57600080fd5b506004361060285760003560e01c8063473ca96c14602d575b600080fd5b60336035565b005b60008054906101000a900473ffffffffffffffffffffffffffffffffffffffff1673ffffffffffffffffffffffffffffffffffffffff1663732b7a8d6040518163ffffffff1660e01b8152600401600060405180830381600087803b158015609c57600080fd5b505af115801560af573d6000803e3d6000fd5b5050505056fea2646970667358221220c3d5fc976b87e2f69958bff54166a6d544338f2fdac0c7dc4db6201fdbf839a864736f6c63430008180033",
  "linkReferences": {},
  "deployedLinkReferences": {}
}